:020000040800F2
:10000000D806002091010008D10700086907000800
:10001000CD0700083F040008251700080000000075
:10002000000000000000000000000000F10E0008C9
:10003000A904000800000000350C00083110000879
:10004000AB010008AB010008AB010008AB010008E0
:10005000AB010008AB010008AB010008AB010008D0
:10006000AB010008AB010008AB010008AB010008C0
:10007000AB010008AB010008AB010008AB010008B0
:10008000AB010008AB010008AB010008AB010008A0
:10009000AB010008AB010008AB010008AB01000890
:1000A000AB010008AB010008AB010008AB01000880
:1000B000F5120008AB010008AB010008AB01000815
:1000C000AB010008AB010008AB010008AB01000860
:1000D000AB010008AB010008AB010008AB01000850
:1000E000AB010008AB010008AB01000800F002F80A
:1000F00000F03FF80AA090E8000C82448344AAF183
:100100000107DA4501D100F034F8AFF2090EBAE880
:100110000F0013F0010F18BFFB1A43F0010318473B
:10012000B81D0000D81D0000103A24BF78C878C15F
:10013000FAD8520724BF30C830C144BF04680C60ED
:10014000704700000023002400250026103A28BF35
:1001500078C1FBD8520728BF30C148BF0B60704739
:10016000642900F07D80002070471FB51FBD10B5C9
:1001700010BD00F02AF91146FFF7F7FF01F0F8FA79
:1001800000F048F903B4FFF7F2FF03BC00F050F9A8
:100190000948804709480047FEE7FEE7FEE7FEE71B
:1001A000FEE7FEE7FEE7FEE7FEE7FEE70448054957
:1001B000054A064B7047000035100008ED000008A6
:1001C000D8000020D8060020D8020020D802002045
:1001D0000FB41CB5074B06AA7B44694600900598EE
:1001E00000F0DBF80020694600F0EAF81CBC5DF87E
:1001F00014FB0000E50100002DE9F0410E46044625
:10020000002020622046E168884730B3252805D0C9
:10021000D4E901219047206A401CF2E7E1682046BA
:1002200000278847050018D0A5F14100192802D8F9
:1002300020354FF400673246294620462760FFF7F5
:100240008FFF40B1012804D0F61D26F007060836BE
:10025000D8E7361DD6E72846DAE7206ABDE8F08100
:100260002DE9F0410646002410687529314616A58F
:1002700010D0AFF30080002802DA404213A507E057
:1002800031688A0701D512A502E0490704D511A5F6
:10029000012401E0AFF3008000210A2206F12407C7
:1002A00009E0B0FBF2FCB0FBF2F302FB1C003030C3
:1002B00078541846491C0028F3D123462A46304674
:1002C000BDE8F04100F00BB8000000002D00000078
:1002D0002B000000200000007047704770472DE998
:1002E000F0470D4699469246044600F124080168FD
:1002F000880604D5E06921F01001216000E00120AA
:10030000A84201DD471B00E00027A1697A1902EB32
:100310000900081AA0612078C00602D42046AFF375
:100320000080002608E0D4E901211AF80600904771
:10033000206A401C761C20624E45F4DB2078C00603
:100340000AD52046AFF3008006E0D4E90121302031
:100350009047206A401C2062381EA7F10107F4DC98
:1003600007E0D4E9012118F805009047206A401CF5
:100370002062281EA5F10105F3DC2046AFF30080C2
:100380002078000602D50220BDE8F0870120FBE7B7
:1003900001694A1C02610878704700B58FB0CDE949
:1003A00001310021059105497944CDE90310114639
:1003B0006846FFF721FF0FB000BD0000E5FFFFFF1B
:1003C0000A6802F8010B0A607047754600F02CF8C5
:1003D000AE4605006946534620F00700854618B032
:1003E00020B5FFF7E3FEBDE820404FF000064FF0D8
:1003F00000074FF000084FF0000B21F00701AC465A
:10040000ACE8C009ACE8C009ACE8C009ACE8C00978
:100410008D46704710B50446AFF300802046BDE816
:100420001040FFF7AFBE0000004870477400002086
:1004300001491820ABBEFEE726000200704700BF4E
:10044000FEE710B500F018FC4FF4803000F0D6FC49
:1004500000F032FD012826D1102000F06DF80220B6
:1004600000F078F8002000F0BDFC4FF4806000F050
:10047000EBFC002000F0F4FC4FF4E0114FF480306E
:1004800000F000FD012000F0F7FC00BF392000F073
:1004900083FC0028FAD0022000F002FD00BF00F02B
:1004A00099FC0828FBD110BD7047000000B587B04B
:1004B0000121042000F0D0FB0121022000F0BCFB50
:1004C0000121084600F0C8FB04208DF81B00C02065
:1004D000ADF8180006A9164800F048F80020ADF85D
:1004E0000C00ADF80E004FF6FF70ADF810000020C4
:1004F000ADF8120003A90F4801F0C2F8684601F0F8
:1005000025F80420ADF800000F20ADF8080069467A
:10051000084800F0C5FF002302220121054800F031
:1005200089FF0121034800F037FF07B000BD00003C
:1005300000080140000400400549096821F010014D
:10054000034A1160114609680143116070470000B9
:100550000020024001460020034A106800F03800E5
:100560000843106070470000002002402DE9F04170
:10057000024600250026002000230024002791F8D1
:1005800003C00CF00F0591F803C00CF0100CBCF187
:10059000000F03D091F802C04CEA050591F800C0A5
:1005A000BCF1000F31D0146800202BE04FF0010C9B
:1005B0000CFA00F3B1F800C00CEA03069E4220D109
:1005C00083004FF00F0C0CFA03F7BC4305FA03FC51
:1005D0004CEA040491F803C0BCF1280F06D14FF097
:1005E000010C0CFA00FCC2F814C00AE091F803C038
:1005F000BCF1480F05D14FF0010C0CFA00FCC2F819
:1006000010C0401C0828D1D31460B1F800C0BCF160
:10061000FF0F34DD546800202EE000F1080C4FF08D
:10062000010808FA0CF3B1F800C00CEA03069E4278
:1006300021D183004FF00F0C0CFA03F7BC4305FAED
:1006400003FC4CEA040491F803C0BCF1280F05D167
:1006500000F1080C08FA0CF8C2F8148091F803C0F5
:10066000BCF1480F07D100F1080C4FF0010808FA5F
:100670000CF8C2F81080401C0828CED35460BDE8A6
:10068000F0810000F0B50A46002300240021002577
:1006900000F00046B6F1004F02D11D4EF16901E0B5
:1006A0001B4E7168C0F3034583B200F44016B6F5E3
:1006B000401F08D121F07061154E766826F07066F3
:1006C000134F7E6012E000F48016B6F5801F06D14D
:1006D000032606FA05F4A14341F0706106E0460DD9
:1006E000360103FA06F6B14341F0706122B1460DBE
:1006F000360103FA06F6314300F00046B6F1004F2A
:1007000002D1034EF16101E0014E7160F0BD0000C5
:10071000000001400246002093680B400BB101200D
:1007200000E00020704702460020D3680B400BB168
:10073000012000E00020704741617047016170476F
:100740000AB1016100E041617047000010B5054841
:1007500000F091FE04B20021024800F063FF204641
:1007600010BD00000004004000BFFEE708B50121F5
:10077000042000F071FA48208DF803002020ADF825
:10078000000069460148FFF7F1FE08BD000C01407A
:1007900010B520210B48FFF7BDFF90B9642000F091
:1007A000C3FF20210748FFF7B5FF50B9064800787E
:1007B000401C0549087008460078012801DD00202A
:1007C000087010BD000801403600002000BFFEE7A1
:1007D0007047000070B5002100230F22C47804B3D5
:1007E000154C246804F4E064C4F5E064210AC1F106
:1007F0000403CA40447804FA03F184781440214386
:1008000009010E4C0678A155047804F01F05012457
:10081000AC4005786D11AD0005F1E025C5F800414B
:1008200009E0047804F01F050124AC40044D06786B
:10083000761145F8264070BD0CED00E000E400E0C4
:1008400080E100E002490143024A11607047000064
:100850000000FA050CED00E070B500240EE0002168
:10086000204600F0CBF8002504E0002000F03EF91F
:10087000681CC5B2802DF8DB601CC4B2082CEEDB0E
:1008800070BD70B5002406E0002500E06D1CB5F5D4
:100890007A7FFBD3641CB4F57A7FF5D300F052F86D
:1008A000AE2000F00BF9D52000F008F9F02000F0A0
:1008B00005F9A82000F002F93F2000F0FFF8D3204E
:1008C00000F0FCF8002000F0F9F8402000F0F6F805
:1008D0008D2000F0F3F8142000F0F0F8202000F054
:1008E000EDF8102000F0EAF8A12000F0E7F8C820A9
:1008F00000F0E4F8DA2000F0E1F8122000F0DEF871
:10090000812000F0DBF8FF2000F0D8F8D92000F0BB
:10091000D5F8F12000F0D2F8DB2000F0CFF830203D
:1009200000F0CCF8A42000F0C9F8A62000F0C6F82A
:100930002E2000F0C3F8AF2000F0C0F8FFF78CFFC6
:1009400070BD000008B501210D2000F085F90121DE
:100950001848FFF797FE10208DF8030003208DF84C
:100960000200F020ADF8000069461348FFF7FEFDD5
:100970004FF40040ADF8000069461048FFF7F6FD5F
:10098000012240210C48FFF7DBFE012280210A48AA
:10099000FFF7D6FE0122D1030848FFF7D1FE01225E
:1009A00010210548FFF7CCFE012220210248FFF765
:1009B000C7FE08BD00023000000C014000080140E5
:1009C00070B50546002413E0002240210A48FFF7D5
:1009D000B7FE8020204100EA050280210648FFF78B
:1009E000AFFE012240210448FFF7AAFE601CC4B2FA
:1009F000082CE9DB70BD0000000C014070B5054615
:100A00000C4645F0B00000F059F8102141EA1410EE
:100A100000F054F804F00F0000F050F870BD000032
:100A20002DE9F04105460E461746721ED206110EFC
:100A30006A1E5206100EFFF7E1FF002409E0A7F13D
:100A40002001134A02EB0111085D00F04FF8601C11
:100A5000C4B2082CF3DB721ED206110E6A1E0123EB
:100A600003EB4202D0B2FFF7C9FF00240BE0A7F16D
:100A70002001074A02EB011204F10801505C00F06A
:100A800035F8601CC4B2082CF1DBBDE8F081000031
:100A9000E81800082DE9F04107460E4615460024E7
:100AA00007E02A5D3019C1B23846FFF7B9FF601C74
:100AB000C4B2285D0028F4D1BDE8F08110B5044629
:100AC000002210210848FFF73BFE002220210648A3
:100AD000FFF736FE2046FFF773FF01222021024870
:100AE000FFF72EFE10BD0000000C014010B50446BB
:100AF000012210210848FFF723FE0022202106488A
:100B0000FFF71EFE2046FFF75BFF0122202102486F
:100B1000FFF716FE10BD0000000C014000B58DB0BF
:100B200001210C2000F098F80121C80200F094F88F
:100B300018208DF833004FF48070ADF8300003209A
:100B40008DF832000CA93848FFF710FD4FF4005023
:100B5000ADF830000CA93548FFF708FD4FF4805080
:100B6000ADF8300004208DF833000CA92F48FFF7B2
:100B7000FDFC0020ADF82400ADF8260041F61F4032
:100B8000ADF828000020ADF82A008DF82C0009A946
:100B9000274800F075FD6020ADF814000120ADF885
:100BA00016000420ADF8180040F60F60ADF81A00EA
:100BB0000020ADF81C00ADF81E00ADF82000ADF827
:100BC000220005A91A4800F0D3FC0821184800F0BB
:100BD0001BFD4FF40060ADF804004010ADF80600B6
:100BE0008010ADF808000020ADF80A004FF48050E6
:100BF000ADF80C000020ADF80E004FF48040ADF8C9
:100C0000100001A90A4800F0B1FB0121084800F0DA
:100C1000A1FB0121064800F0BFFB0121044800F0C0
:100C2000FAFB0DB000BD000000080140000C0140BF
:100C3000002C01407047000029B1064AD2690243E6
:100C4000044BDA6104E0034AD2698243014BDA6162
:100C5000704700000010024029B1064A9269024321
:100C6000044B9A6104E0034A92698243014B9A6102
:100C700070470000001002400F48006840F001007B
:100C80000D490860084640680C4908400A49486018
:100C9000084600680A490840074908600846006895
:100CA00020F4802008600846406820F4FE00486078
:100CB0004FF41F0088607047001002400000FFF8EA
:100CC000FFFFF6FE30B500210022002400232D4D49
:100CD0006D6805F00C0121B1042905D0082923D144
:100CE00005E0294D056022E0274D05601FE0254DF8
:100CF0006D6805F47012234D6D6805F4803402258B
:100D000005EB92421CB9214D554305600BE01D4D8A
:100D10006D6805F400351DB11C4D5543056002E0BA
:100D2000194D5543056002E0174D056000BF00BF37
:100D3000144D6D6805F0F0010909154D6B5C0568EF
:100D4000DD4045600F4D6D6805F4E061090A104D06
:100D50006B5C4568DD4085600A4D6D6805F4605147
:100D6000C90A0B4D6B5C4568DD40C560054D6D687B
:100D700005F44041890B074D6B5CC568B5FBF3F585
:100D8000056130BD0010024000127A0000093D00EC
:100D9000140000202400002010B50146002200238A
:100DA00000204A11012A02D1094C236806E0022AD8
:100DB00002D1074C236A01E0054C636A01F01F026F
:100DC000012494401C400CB1012000E0002010BD23
:100DD000001002400248406800F00C00704700001C
:100DE0000010024001460020034A506820F0F00045
:100DF0000843506070470000001002401149096824
:100E000021F480310F4A11601146096821F48021D4
:100E10001160B0F5803F03D0B0F5802F0ED106E011
:100E20000849096841F48031064A116007E0054924
:100E3000096841F4A021034A116000E000BF00BF2F
:100E4000704700000010024001460020034A50682D
:100E500020F4E0600843506070470000001002403A
:100E600001460020034A506820F4605040EAC10067
:100E7000506070470010024001490866704700004A
:100E80000000424202460020044B586820F47C10C7
:100E900042EA01031843014B5860704700100240BA
:100EA00001460020034A506820F0030008435060C8
:100EB000704700000010024038B500200090002468
:100EC000002500BF3120FFF767FF05460098401C52
:100ED00000900098B0F5A06F01D0002DF2D0312025
:100EE000FFF75AFF08B1012400E00024204638BD76
:100EF000704710B500F002F810BD00000CB50020DE
:100F0000019000903348006840F480303149086017
:100F100000BF3048006800F4003000900198401C89
:100F20000190009818B90198B0F5A06FF1D1294847
:100F3000006800F4003010B10120009001E00020B2
:100F400000900098012843D12348006840F0100029
:100F5000214908600846006820F003000860084640
:100F6000006840F0020008601A484068194948606B
:100F70000846406848600846406840F48060486021
:100F80000846406820F47C1048600846406840F4F9
:100F9000E81048600846006840F08070086000BFB4
:100FA0000C48006800F000700028F9D0094840683B
:100FB00020F00300074948600846406840F00200FE
:100FC000486000BF0348406800F00C000828F9D1D1
:100FD0000CBD0000001002400020024030B5014668
:100FE000B1F1807F01D3012030BD21F07F40401E50
:100FF0004FF0E022506150170F22002807DA130744
:101000001D0E094B00F00F04241F1D5503E01307AC
:101010001C0E064B1C5400BF00204FF0E0229061D4
:10102000072010610020DFE718ED00E000E400E099
:101030007047000010B51348006840F001001149E6
:10104000086008464068104908400E494860084654
:1010500000680E4908400B4908600846006820F403
:10106000802008600846406820F4FE0048604FF485
:101070001F008860FFF73DFF4FF0006004490860E3
:1010800010BD0000001002400000FFF8FFFFF6FE58
:1010900008ED00E010B5FFF7D4F94FF4A060FFF7BA
:1010A000D1FBFFF763FBFFF739FDFFF7FFF900F016
:1010B0007FF910BDF0B50C46154600220021068CC4
:1010C0004FF6FE773E400684028B018C4FF60C767D
:1010D00032407E1C06EA03162E433243104EB042C5
:1010E0000ED0104EB0420BD0B0F1804F08D00E4E53
:1010F000B04205D00D4EB04202D00D4EB04206D1E6
:101100004FF6FD76314044F00106314305E04FF6DD
:10111000F576314044F00106314302830184F0BD8D
:10112000002C014000340140000400400008004051
:10113000000C0040F0B50C461546002200210026A8
:10114000078C4FF6EF7C07EA0C070784028B018CB3
:101150004FF6FF7707EA041640F6FF473A404FF68E
:10116000FF7707EA03373A434FF6FF7707EA052789
:101170003A43114FB8420ED0104FB8420BD0B0F1E5
:10118000804F08D00E4FB84205D00E4FB84202D063
:101190000D4FB84206D14FF6DF77394046F01007C1
:1011A000394305E04FF65F77394044F01007394383
:1011B00002830184F0BD0000002C01400034014096
:1011C0000004004000080040000C0040F0B50C4650
:1011D0001546002200210026078C4FF6FF6C07EA17
:1011E0000C070784828B018C4FF6FF7707EA0426F1
:1011F0004FF60C773A404FF6FF7707EA03172F4375
:101200003A43114FB8420ED0104FB8420BD0B0F154
:10121000804F08D00E4FB84205D00E4FB84202D0D2
:101220000D4FB84206D14FF6FF57394046F480774C
:10123000394305E04FF2FF57394044F48077394392
:1012400082830184F0BD0000002C01400034014085
:101250000004004000080040000C0040F0B50C46BF
:101260001546002200210026078C4EF6FF7C07EA77
:101270000C070784828B018C4FF6FF7707EA043650
:1012800040F6FF473A404FF6FF7707EA05273A4313
:101290004FF6FF7707EA03373A43114FB8420ED0B3
:1012A000104FB8420BD0B0F1804F08D00E4FB8426B
:1012B00005D00E4FB84202D00D4FB84206D14DF6C0
:1012C000FF77394046F48057394305E047F6FF572A
:1012D000394044F48057394382830184F0BD0000D3
:1012E000002C014000340140000400400008004090
:1012F000000C004010B50121880700F0BFF801285C
:1013000020D101021048FFF70EFA28B94FF480717E
:101310000D48FFF713FA04E04FF480710A48FFF715
:101320000BFAFFF713FA09490880094800680078AA
:101330000978084440B20649096808700121880705
:1013400000F027F810BD0000000801403400002024
:101350003000002021B1028842F08002028004E0C7
:1013600002884FF67F731A40028070470A884B88C4
:101370001A438B881A43CB881A430B891A434B892B
:101380001A438B891A43A0F844207047CA4302824B
:101390007047CA430282704721B1028842F00102BD
:1013A000028004E002884FF6FE731A400280704704
:1013B0001FB501210846FFF73FFC4720ADF80400A8
:1013C0000020ADF8060042F20F70ADF808000020D2
:1013D000ADF80A0001A94FF0804000F051F91C203F
:1013E0008DF8000000208DF801008DF8020001202A
:1013F0008DF803006846FFF7EDF901218807FFF734
:10140000C5FF01221146900700F0A9F801218807C5
:10141000FFF7C2FF1FBD31B1B0F8442042F40042D3
:10142000A0F8442005E0B0F84420C2F30E02A0F872
:1014300044207047F0B50C4615461E460021002298
:1014400000230189028B038C4FF6F8773940214342
:101450004FF6FC473A4040F201173A434FF6DD772A
:101460003B404FF6FF7707EA06172F433B430181C6
:1014700002830384F0BD0146888C704730B5024674
:10148000002000230024158A05EA0103958905EA56
:10149000010413B10CB1012000E0002030BD0000B8
:1014A00070B505460C46244885420ED02348854237
:1014B0000BD0B5F1804F08D02148854205D0214896
:1014C000854202D02048854200D100E000BF20883C
:1014D00050B92389A28861882846FFF7EBFDE1888F
:1014E000284600F0A1F825E0208804280AD12389A5
:1014F000A28861882846FFF71DFEE188284600F093
:101500009CF817E0208808280AD12389A2886188DE
:101510002846FFF75BFEE188284600F09BF809E0CB
:101520002389A28861882846FFF798FEE18828462B
:1015300000F099F870BD0000002C0140003401401B
:101540000004004000080040000C00400021018021
:101550004180012181800021C180018170471AB141
:1015600083890B43838102E083898B4383817047A6
:1015700070B5002400220023058C4FF6FE7635401E
:101580000584028C8388048B4FF68F752C40B51E22
:101590002C400D882C43751E2A400D892A434D8806
:1015A0002A43144DA8420BD0134DA84208D0134D26
:1015B000A84205D0124DA84202D0124DA84213D124
:1015C0004FF6F7752A404D892A434FF6FB752A409E
:1015D0008D882A434FF6FF652B404FF6FF552B4071
:1015E0008D892B43CD892B4383800483CD888586C9
:1015F000028470BD002C01400034014000400140D5
:1016000000440140004801400A460021018B4FF68A
:10161000F773194011430183704701858282704737
:101620008186704781847047028B4FF6F3731A40AE
:101630000283028B0A4302837047028B4FF2FF330F
:101640001A400283028B4FF6FF7303EA01231A4309
:1016500002837047828B4FF6F3731A408283828B2A
:101660000A4382837047828B4FF2FF331A40828392
:10167000828B4FF6FF7303EA01231A43828370477C
:10168000002202881D4B98420ED01D4B98420BD071
:10169000B0F1804F08D01B4B984205D01A4B9842AE
:1016A00002D01A4B984204D14FF68F731A404B88E0
:1016B0001A43174B984207D0164B984204D04FF666
:1016C000FF431A40CB881A4302808B8883850B889E
:1016D00003850A4B98420BD0094B984208D00E4B19
:1016E000984205D00D4B984202D00D4B984201D143
:1016F0000B7A03860123838270470000002C01408F
:10170000003401400004004000080040000C00408C
:10171000001000400014004000400140004401401F
:101720000048014000BFFEE731B500240F480068C3
:101730004FF47A71B0FBF1F52846FFF74FFC00BF7C
:1017400008E000BF4FF0E020006900F4803000287E
:10175000F8D0641C00988442F3D34FF0E020006975
:1017600020F001004FF0E021086138BD00000020AA
:10177000FFF790FC4348FFF7A5FAFFF782F87FE0F8
:10178000FFF706F84048007810B1012812D108E0B0
:101790003E483F4908603FA206210320FFF77AF93F
:1017A00011E03E483A4908603DA206210320FFF7B8
:1017B00071F908E03548364908603BA2062103204C
:1017C000FFF768F900BF00BF39A201210320FFF72E
:1017D00061F92E4890F90000012803DC01202B4913
:1017E000087007E0294890F90000632802DB6320B5
:1017F00026490870294890F90000012803DC0120DF
:101800002649087007E0254890F90000142802DBFB
:101810001420224908701D4890F900004FF4E1514E
:101820004843642190FBF1F0401E2349088008469C
:1018300001882248FFF7F4FE144890F9002020A107
:101840002448FEF7C5FC234A01210846FFF722F988
:10185000124890F90000401E81B200221748FFF79D
:10186000DCFE0E4890F90000642100FB01F21AA191
:101870001848FEF7ADFC174A01210220FFF70AF9CC
:101880007EE7000038000020360000202A000020FB
:101890003000002044757479202000002E000020C4
:1018A000506572696F64000044757479000000002F
:1018B0004D6F64653A00000028000020002C0140B4
:1018C00044757479206379636C653A256425252015
:1018D000000000004C0000205065726F69643A25DA
:1018E000647573200000000000000000000000008C
:1018F0000000000000000000000000F800000000F0
:10190000000000333000000000100C06100C060030
:10191000000000000000000040C07840C078400097
:10192000043F04043F040400007088FC08300000F9
:10193000001820FF211E0000F008F000E018000051
:1019400000211C031E211E0000F00888700000000A
:101950001E2123241927211010160E00000000005C
:101960000000000000000000000000E01804020079
:10197000000000071820400000020418E0000000EA
:101980000040201807000000404080F080404000E8
:101990000202010F01020200000000F0000000003E
:1019A0000101011F01010100000000000000000012
:1019B00080B0700000000000000000000000000087
:1019C0000001010101010101000000000000000010
:1019D00000303000000000000000000080601804AB
:1019E000006018060100000000E010080810E00088
:1019F000000F102020100F00001010F80000000051
:101A00000020203F20200000007008080888700097
:101A10000030282422213000003008888848300017
:101A20000018202020110E000000C02010F8000037
:101A300000070424243F240000F8088888080800D0
:101A40000019212020110E0000E0108888180000E5
:101A5000000F112020110E0000380808C8380800B7
:101A60000000003F00000000007088080888700037
:101A7000001C222121221C0000E010080810E000B8
:101A80000000312222110F00000000C0C000000041
:101A90000000003030000000000000800000000066
:101AA000000080600000000000008040201008005E
:101AB0000001020408102000404040404040400027
:101AC0000404040404040400000810204080000002
:101AD0000020100804020100007048080808F00007
:101AE0000000003036010000C030C828E810E000D7
:101AF0000718272423140B000000C038E000000062
:101B0000203C23020227382008F8888888700000CB
:101B1000203F202020110E00C0300808080838009F
:101B2000071820202010080008F808080810E00016
:101B3000203F202020100F0008F88888E8081000B7
:101B4000203F20202320180008F88888E80810008B
:101B5000203F200003000000C030080808380000C3
:101B600007182020221E020008F808000008F808C4
:101B7000203F210101213F20000808F8080800004B
:101B80000020203F2020000000000808F80808007E
:101B9000C08080807F00000008F888C028180800F6
:101BA000203F20012638200008F80800000000002F
:101BB000203F20202020300008F8F800F8F8080026
:101BC000203F003F003F200008F830C00008F80820
:101BD000203F200007183F00E01008080810E00030
:101BE0000F10202020100F0008F808080808F00047
:101BF000203F210101010000E01008080810E0006A
:101C00000F18242438504F0008F8888888887000FE
:101C1000203F2000030C302000708808080838009E
:101C20000038202121221C00180808F80808180094
:101C30000000203F2000000008F808000008F80815
:101C4000001F202020201F000878880000C83808C6
:101C5000000007380E010000F80800F80008F8003E
:101C6000033C0700073C03000818688080681808D8
:101C700020302C03032C30200838C800C838080056
:101C80000000203F2000000010080808C8380800A5
:101C90002038262120201800000000FE0202020049
:101CA0000000007F40404000000C30C000000000F9
:101CB000000000010638C00000020202FE00000021
:101CC000004040407F0000000000040202020400C7
:101CD0000000000000000000000000000000000004
:101CE00080808080808080800002020400000000EC
:101CF00000000000000000000000808080800000E4
:101D00000019242222223F2008F8008080000000D1
:101D1000003F112020110E00000000808080000094
:101D2000000E112020201100000000808088F800A3
:101D3000000E112020103F200000808080800000D5
:101D4000001F222222221300008080F08888881839
:101D50000020203F20200000000080808080800044
:101D6000006B94949493600008F8008080800000D9
:101D7000203F210000203F200080989800000000B4
:101D80000020203F202000000000008098980000E4
:101D900000C08080807F000008F800008080800004
:101DA000203F24022D302000000808F80000000029
:101DB0000020203F202000008080808080808000E4
:101DC000203F20003F20003F808000808080000076
:101DD000203F210000203F20000080808080000004
:101DE000001F202020201F00808000808000000035
:101DF00080FFA12020110E00000000808080800064
:101E0000000E112020A0FF80808080008080800054
:101E100020203F2120000100000080808080800081
:101E20000033242424241900008080E080800000F6
:101E30000000001F20200000808000000080800043
:101E4000001F202020103F208080800000808080A4
:101E500000010E3008060100808000800080808034
:101E60000F300C030C300F00008080008080800059
:101E70000020312E0E312000808080000080808084
:101E800080818E7018060100008080808080800034
:101E90000021302C2221300000000000807C020252
:101EA00000000000003F404000000000FF00000074
:101EB00000000000FF0000000002027C8000000023
:101EC0000040403F0000000000060101020204043F
:101ED0000000000000000000F81E000800000020C4
:101EE0003800000028010008301F000838000020DA
:101EF000A00600004401000800A24A0400000000FF
:101F000000000000010203040607080900000000A9
:101F1000010203040102030406070809020406087B
:101F200000003200000001002A0000200000000034
:04000005080000ED02
:00000001FF
